:020000040800F2
:10000000480700206D020008BD630008355F000846
:10001000B9630008F5030008D5840008000000005B
:100020000000000000000000000000009D650008C6
:10003000BD050008000000002D640008F5650008FB
:1000400089020008890200088902000800000000F7
:1000500089020008890200088902000800000000E7
:1000600089020008890200080000000089020008D7
:1000700089020008CD0500088902000889020008ED
:10008000D9050008E5050008890200088902000872
:1000900089020008C10500088902000889020008D9
:1000A0008902000889020008890200088902000804
:1000B00089020008890200088902000889020008F4
:1000C00089020008890200088902000889020008E4
:1000D0000000000089020008890200088902000867
:1000E0008902000889020008C56700088902000823
:1000F00089020008D5670008E567000800000000D5
:1001000000000000F5670008890200088902000865
:100110008902000889020008890200088902000893
:100120008902000889020008C584000889020008C5
:100130008902000800000000000000008902000899
:10014000890200080000000000000000000000001C
:10015000000000000000000089020008000000000C
:100160000000000000000000890200088902000869
:10017000000000000000000000000000000000007F
:10018000000000000000000000000000000000006F
:10019000000000000000000000000000000000005F
:1001A0000000000000000000890200088902000829
:1001B00089020008890200088902000889020008F3
:1001C0008902000889020008000000000000000009
:1001D000000000000000000000000000890200088C
:1001E000890200080000000000000000000000007C
:1001F00000000000000000000000000000000000FF
:1002000000000000890200088902000800000000C8
:10021000000000008902000800000000000000004B
:10022000000000000000000000000000890200083B
:10023000890200080000000000000000000000002B
:10024000000000000000000000000000890200081B
:100250008902000889020008DFF80CD000F07CF861
:1002600000480047298700084807002007488047C2
:1002700007480047FEE7FEE7FEE7FEE7FEE7FEE78A
:10028000FEE7FEE7FEE7FEE7FEE70000AD660008DA
:10029000590200082DE9F05F0546002092469B4672
:1002A00088460646814640241BE02846414647468C
:1002B000224600F041F853465A46C01A914110D3E5
:1002C00011461846224600F028F82D1A67EB01085F
:1002D0004F4622460120002100F01FF817EB0009CD
:1002E0004E41201EA4F10104DFDC484631462A4677
:1002F0004346BDE8F09FD2B201E000F8012B491E51
:10030000FBD270470022F6E710B513460A460446B2
:100310001946FFF7F0FF204610BD202A04DB203AE3
:1003200000FA02F1002070479140C2F1200320FA48
:1003300003F3194390407047202A04DB203A21FA46
:1003400002F00021704721FA02F3D040C2F12002EE
:100350009140084319467047064C074D06E0E06897
:1003600040F0010394E8070098471034AC42F6D3FC
:10037000FFF776FFDC870008FC87000880B582B0B5
:1003800000200190FFE7019840F23C11C2F2000109
:100390000978884210DAFFE7019A40F27400C2F24D
:1003A0000000805C40F21001C2F200018854FFE7B7
:1003B000019801300190E6E740F21001C2F200011D
:1003C000AB20487040F23C10C2F200000278931E4D
:1003D00040F27402C2F20002D25C0132CA540278C6
:1003E00040F2A820C2F2000005F0F4FC08F074F816
:1003F00002B080BDFFE7FEE783B00290019100925A
:10040000029900200860029948600198029988606A
:1004100000980299086103B07047000083B0019012
:100420000091019801684068884217D0FFE7019861
:1004300041680069405C0099087001994868013082
:100440004860019948688968884204D1FFE70199AA
:1004500000204860FFE70020029003E04FF0FF30EB
:100460000290FFE7029803B07047000083B001904C
:100470008DF80310019908680130C86001988168FF
:10048000C068884204D1FFE701990020C860FFE7F7
:1004900001984168C06888420CD0FFE79DF80300CE
:1004A00001990A68096988540199C86808600020A0
:1004B000029003E04FF0FF300290FFE7029803B094
:1004C0007047000080B540F25510C2F2000000787D
:1004D00001281BD1FFE740F27400C2F20000C1788E
:1004E00040F24332C2F200021170007940F2413111
:1004F000C2F200010870FFF741FF40F25511C2F24D
:1005000000010020087008F049F8FFE780BD0000F6
:1005100082B040F27400C2F20000807840F23C11D8
:10052000C2F20001087000200090FFE7009840F23E
:100530003C11C2F2000109780239884212DAFFE761
:1005400040F25411C2F200010878009B40F274029C
:10055000C2F20002D25C10440870FFE7009801303C
:100560000090E3E740F25410C2F20000007840F23D
:100570003C11C2F20001097840F27402C2F200029A
:10058000114411F8021C88420AD1FFE740F25411CD
:10059000C2F200010020087001208DF8070008E079
:1005A00040F25411C2F20001002008708DF80700DB
:1005B000FFE79DF8070002B0704700007047000099
:1005C00080B54FF4806000F02FF980BD80B5042025
:1005D00000F02AF980BD000080B5202000F024F949
:1005E00080BD000080B5402000F01EF980BD0000F5
:1005F00072B6FFE7FEE7000080B540F24010C2F29D
:10060000000040F2D802C2F200026421FFF7F4FEBB
:1006100040F2A820C2F2000040F27411C2F20001C0
:10062000012205F071FA80BD80B584B0029000F01F
:100630000DFB0190029820B9FFE701208DF80F0013
:1006400079E0029890F8540002280DD0FFE7029953
:1006500020208865FFE70299002081F84C00FFE721
:1006600001208DF80F0066E002980168486940F0AB
:10067000040048610299052081F85400FFE70298C0
:10068000006800698004002827D4FFE700F0DEFA44
:100690000199401A06281FD3FFE70299886D40F0A0
:1006A000100088650299032081F85400029890F8A0
:1006B00050000006002805D5FFE70298416F012091
:1006C0000873FFE7FFE70299002081F84C00FFE77D
:1006D00001208DF80F002EE0D1E7029801684869EB
:1006E00040F0020048610299042081F85400029809
:1006F00001684FF4FE40C8600299012081F854005F
:10070000029890F850000006002809D5FFE70298EB
:10071000416F012008730298016800208864FFE798
:10072000FFE70299002081F84C00FFE7FFE7002077
:100730008DF80F00FFE79DF80F0004B080BD0000AA
:1007400082B00090009820B9FFE701208DF80700E3
:100750001CE0009890F85400022807D0FFE70099A9
:100760002020886501208DF807000FE00099042003
:1007700081F8540000980168486942F2040210436D
:100780004861FFE700208DF80700FFE79DF80700AC
:1007900002B07047FFE742F20C01C4F202410420AC
:1007A000086042F21001C4F202410860FFE7FFE76F
:1007B00042F20C01C4F202414FF48060086042F240
:1007C0001001C4F202410860FFE7FFE742F20C01AA
:1007D000C4F202412020086042F21001C4F202413A
:1007E0000860FFE7FFE742F20C01C4F2024140203B
:1007F000086042F21001C4F202410860FFE770474E
:1008000080B50D2000F0DCFA152000F0D9FA102098
:1008100000F0D6FA112000F0D3FA80BD81B0ADF817
:10082000020001B07047000080B582B0ADF806004C
:1008300042F20C00C4F202400068BDF80610084203
:100840000CD0FFE7BDF8060042F20C01C4F20241F1
:100850000860BDF8060000F019F8FFE742F210004A
:10086000C4F202400068BDF8061008420CD0FFE751
:10087000BDF8060042F21001C4F202410860BDF862
:100880000600FFF7CBFFFFE702B080BD80B582B066
:10089000ADF80600BDF80600042817D1FFE740F2C6
:1008A0004031C2F20001012008700D2000F07EFAF4
:1008B000152000F07BFA40F25C20C2F200000268D2
:1008C0006FF00101116103F069FDFFE7BDF806005B
:1008D000B0F5806F17D1FFE740F24031C2F200015E
:1008E00001200870152000F061FA0D2000F05EFA7A
:1008F00040F27810C2F2000002686FF0010111614D
:1009000003F04CFDFFE7BDF80600202817D1FFE7F4
:1009100040F24031C2F2000102200870102000F0C5
:1009200045FA112000F042FA40F25C20C2F20000C9
:1009300002686FF00101116103F030FDFFE7BDF8BF
:100940000600402817D1FFE740F24031C2F2000113
:1009500002200870112000F029FA102000F026FA79
:1009600040F27810C2F2000002686FF001011161DC
:1009700003F014FDFFE702B080BD000085B00490D5
:10098000039100200090FFE7039800680099C84099
:10099000002800F05881FFE703980068009A0121C1
:1009A0009140084001900198002800F04881FFE73D
:1009B00003984068022805D0FFE703984068122892
:1009C00028D1FFE7049800996FF0030202EA510171
:1009D0000844006A0290009800F0070081000F2090
:1009E00000FA01F10298884302900398006900F030
:1009F0000F00009901F00701890000FA01F1029847
:100A00000843029002980499009B02EA53021144A1
:100A10000862FFE7049800680290009841000320F4
:100A200000FA01F10298884302900398406800F0B0
:100A300003000099490000FA01F10298084302906E
:100A40000298049908600398406801280FD0FFE7D6
:100A50000398406802280AD0FFE7039840681128ED
:100A600005D0FFE70398406812282FD1FFE70498CC
:100A70008068029000984100032000FA01F102987A
:100A8000884302900398C0680099490000FA01F178
:100A9000029808430290029804998860049840687C
:100AA00002900099012000FA01F102988843029017
:100AB00003984068C0F30010009900FA01F1029811
:100AC00008430290029804994860FFE70398406841
:100AD000032818D0FFE70498C068029000984100EE
:100AE000032000FA01F1029888430290039880687D
:100AF0000099490000FA01F1029808430290029817
:100B00000499C860FFE70398C079C006002840F147
:100B10009580FFE7009820F0030042F26002C4F2E3
:100B2000024280580290009800F00300C1000F209C
:100B300000FA01F102988843029004984FF60041B0
:100B4000CBF6FD510840800A009901F00301C9006D
:100B500000FA01F10298084302900298009921F0EE
:100B60000301885042F20000C4F202400068029083
:100B7000019902988843029003988079C006002862
:100B800005D5FFE70199029808430290FFE7029814
:100B900042F20001C4F20241086042F20400C4F2D1
:100BA00002400068029001990298884302900398DD
:100BB00080798006002805D5FFE70199029808434F
:100BC0000290FFE7029842F20401C4F20241086079
:100BD00042F28400C4F20240006802900199029837
:100BE00088430290039880798007002805D5FFE7A5
:100BF0000199029808430290FFE7029842F28401AB
:100C0000C4F20241086042F28000C4F2024000686F
:100C10000290019902988843029003988079C00756
:100C200028B1FFE70199029808430290FFE7029874
:100C300042F28001C4F202410860FFE7FFE700983A
:100C400001300090A0E605B07047000040F244304B
:100C5000C2F200000068704782B0019000208DF859
:100C6000030040F20040C4F203000068C00720B156
:100C7000FFE701208DF803000AE040F20041C4F2D2
:100C80000301086820F00400019A10430860FFE7A0
:100C90009DF8030002B0704740F20041C4F2030126
:100CA000086840F0010008600020704740F204002E
:100CB000C2F20000027840F24431C2F2000108683A
:100CC000104408607047000080B582B0032000F037
:100CD00099F802F07DFB40F62041C4F20241096818
:100CE00001F00F0248F29A71C0F60001895CC84019
:100CF00040F20001C2F2000108600F2000F010F87D
:100D000020B1FFE701208DF8070005E000F04CF866
:100D100000208DF80700FFE79DF8070002B080BDB6
:100D200080B582B0009040F20400C2F2000000786A
:100D300020B9FFE701208DF8070030E040F2000005
:100D4000C2F20000006840F20401C2F200010A7819
:100D50004FF47A71B1FBF2F1B0FBF1F003F09CF9C2
:100D600020B1FFE701208DF8070018E000980F2858
:100D70000DD8FFE700994FF0FF30002200F02AF86D
:100D8000009840F20801C2F20001086003E001206F
:100D90008DF8070003E000208DF80700FFE79DF8BD
:100DA000070002B080BD00007047000080B582B02F
:100DB000ADF80600BDF9060007F03AFC02B080BDB0
:100DC00080B582B0ADF80600BDF9060007F04CFC16
:100DD00002B080BD80B586B0ADF8160004910392D4
:100DE00007F05AFC0290BDF9160001900298049990
:100DF000039A05F0E5FA0146019807F055FC06B0A4
:100E000080BD000080B582B00190019807F06EFCB3
:100E100002B080BD89B0089040F63440C4F2024070
:100E200000686FF35F20059040F62840C4F202404E
:100E3000016801F0030107910168C1F305210691E2
:100E4000006800F010000490049840F63841C4F2A5
:100E50000241096889B2C90800FB01F000EE100ADE
:100E6000B8EE400A8DED020A0698002800F03D8198
:100E7000FFE707980090012808D0FFE700980228B4
:100E800030D0FFE70098032849D065E040F60040E5
:100E9000C4F202400068C0F3C10149F20000C0F290
:100EA000D030C84003909DED030AB8EE400A9DED96
:100EB000061AB8EE411A80EE010A9DED051AB8EE49
:100EC000411A9DED022A9FED8F3A82EE032A31EE00
:100ED000021AB7EE002A31EE021A20EE010A8DED59
:100EE000010A65E09DED060AB8EE401A9FED860AFC
:100EF00080EE010A9DED051AB8EE411A9DED022A19
:100F00009FED803A82EE032A31EE021AB7EE002AF4
:100F100031EE021A20EE010A8DED010A48E09DED46
:100F2000060AB8EE401A9FED760A80EE010A9DEDA2
:100F3000051AB8EE411A9DED022A9FED723A82EE33
:100F4000032A31EE021AB7EE002A31EE021A20EE21
:100F5000010A8DED010A2BE040F60040C4F2024088
:100F60000068C0F3C10149F20000C0F2D030C840AF
:100F700003909DED030AB8EE400A9DED061AB8EE07
:100F8000411A80EE010A9DED051AB8EE411A9DED59
:100F9000022A9FED5C3A82EE032A31EE021AB7EE86
:100FA000002A31EE021A20EE010A8DED010AFFE758
:100FB00040F60040C4F2024000688001002827D5B6
:100FC000FFE740F62840C4F202400068C003002852
:100FD00019D5FFE79DED010A40F63440C4F2024006
:100FE000006880B2400A01EE100AB8EE411AB7EE6E
:100FF000002A31EE021A80EE010A0898BCEEC00AFF
:1010000080ED000A03E0089900200860FFE703E094
:10101000089900200860FFE740F60040C4F2024053
:1010200000688001002827D5FFE740F62840C4F279
:10103000024000688003002819D5FFE79DED010AF2
:1010400040F63440C4F202400068C0F3064001EEAE
:10105000100AB8EE411AB7EE002A31EE021A80EEFD
:10106000010A0898BCEEC00A80ED010A03E0089965
:1010700000204860FFE703E0089900204860FFE790
:1010800040F60040C4F2024000688001002827D5E5
:10109000FFE740F62840C4F2024000684003002801
:1010A00019D5FFE79DED010A40F63440C4F2024035
:1010B0000068C0F3066001EE100AB8EE411AB7EE00
:1010C000002A31EE021A80EE010A0898BCEEC00A2E
:1010D00080ED020A03E0089900208860FFE703E042
:1010E000089900208860FFE707E008990020086061
:1010F0000899486008998860FFE709B0704700BF09
:101100000024F44A000000460024744A89B0089084
:1011100040F63C40C4F2024000686FF35F20059047
:1011200040F62C40C4F20240016801F0030107912F
:101130000168C1F305210691006800F010000490D9
:10114000049840F64041C4F20241096889B2C908D6
:1011500000FB01F000EE100AB8EE400A8DED020A25
:101160000698002800F03D81FFE7079800900128CD
:1011700008D0FFE70098022830D0FFE70098032846
:1011800049D065E040F60040C4F202400068C0F378
:10119000C10149F20000C0F2D030C84003909DED7B
:1011A000030AB8EE400A9DED061AB8EE411A80EE29
:1011B000010A9DED051AB8EE411A9DED022A9FED38
:1011C0008F3A82EE032A31EE021AB7EE002A31EE90
:1011D000021A20EE010A8DED010A65E09DED060A76
:1011E000B8EE401A9FED860A80EE010A9DED051AC1
:1011F000B8EE411A9DED022A9FED803A82EE032A55
:1012000031EE021AB7EE002A31EE021A20EE010A80
:101210008DED010A48E09DED060AB8EE401A9FEDFB
:10122000760A80EE010A9DED051AB8EE411A9DED91
:10123000022A9FED723A82EE032A31EE021AB7EECD
:10124000002A31EE021A20EE010A8DED010A2BE090
:1012500040F60040C4F202400068C0F3C10149F208
:101260000000C0F2D030C84003909DED030AB8EEF4
:10127000400A9DED061AB8EE411A80EE010A9DED76
:10128000051AB8EE411A9DED022A9FED5C3A82EEF6
:10129000032A31EE021AB7EE002A31EE021A20EECE
:1012A000010A8DED010AFFE740F60040C4F202405A
:1012B00000680001002827D5FFE740F62C40C4F263
:1012C00002400068C003002819D5FFE79DED010A20
:1012D00040F63C40C4F20240006880B2400A01EE91
:1012E000100AB8EE411AB7EE002A31EE021A80EE6B
:1012F000010A0898BCEEC00A80ED000A03E00899D4
:1013000000200860FFE703E0089900200860FFE77D
:1013100040F60040C4F2024000680001002827D5D2
:10132000FFE740F62C40C4F202400068800300282A
:1013300019D5FFE79DED010A40F63C40C4F202409A
:101340000068C0F3064001EE100AB8EE411AB7EE8D
:10135000002A31EE021A80EE010A0898BCEEC00A9B
:1013600080ED010A03E0089900204860FFE703E0F0
:10137000089900204860FFE740F60040C4F20240B0
:1013800000680001002827D5FFE740F62C40C4F292
:10139000024000684003002819D5FFE79DED010ACF
:1013A00040F63C40C4F202400068C0F3066001EE23
:1013B000100AB8EE411AB7EE002A31EE021A80EE9A
:1013C000010A0898BCEEC00A80ED020A03E0089901
:1013D00000208860FFE703E0089900208860FFE7AD
:1013E00007E008990020086008994860089988601B
:1013F000FFE709B0704700BF0024F44A0000004630
:101400000024744A80B592B01191109010981199EF
:1014100080F00070084300285BD1FFE740F6F04001
:10142000C4F20240016801F440710791006880072E
:10143000002809D5FFE70798B0F5807F04D1FFE7C2
:101440004FF40040099042E040F6F040C4F2024000
:1014500000680001002809D5FFE70798B0F5007F74
:1014600004D1FFE74FF4FA4009902FE040F6004026
:10147000C4F2024000688003002823D5FFE70798E4
:10148000B0F5407F1ED1FFE740F61C40C4F2024099
:10149000006800F47C50B0F5007F0FD3FFE740F602
:1014A0001C40C4F202400068C0F3052141F2002054
:1014B000C0F27A00B0FBF1F0099002E00020099040
:1014C000FFE702E000200990FFE7FFE7FFE700F0F9
:1014D0008EBF109805901199069180F00100084385
:1014E000002800F09B80FFE70699059880F0020035
:1014F0000843002800F0FC80FFE70699059880F07B
:1015000004000843002800F05D81FFE70699059874
:1015100080F480500843002800F0C081FFE706995E
:10152000059880F400500843002800F0B782FFE7D8
:101530000699059880F480400843002800F0008355
:10154000FFE70699059880F480300843002800F0F2
:101550004983FFE70699059880F400300843002886
:1015600000F0B983FFE70699059880F480200843CE
:10157000002800F05084FFE70699059880F40010D9
:101580000843002800F0EF81FFE70699059880F0F6
:1015900080600843002800F09286FFE706990598CE
:1015A00080F000600843002800F00B85FFE70699F3
:1015B000059880F080500843002800F07A85FFE706
:1015C0000699059880F000500843002800F0F8853F
:1015D000FFE70598069981F004010843002800F010
:1015E000BA84FFE70598069981F0100108430028A6
:1015F00000F0BB86FFE70598069981F40071084367
:10160000002800F01C82FFE70598069981F48051BC
:101610000843002800F0238300F0E5BE40F6D840E0
:10162000C4F20240006800F007000790079820B954
:10163000FFE701F0A5FE099058E040F60040C4F233
:1016400002400068000100280AD5FFE7079801283A
:1016500006D1FFE70AA8FFF759FD0B98099044E06F
:1016600040F60040C4F2024000688007002812D50E
:10167000FFE7079803280ED1FFE740F60040C4F2C9
:1016800002400068C0F3C10149F20000C0F2D0304E
:10169000C840099028E040F60040C4F202400068CB
:1016A000800500280AD5FFE70798042806D1FFE740
:1016B00040F60010C0F23D00099014E040F6F04002
:1016C000C4F2024000688007002808D5FFE70798A9
:1016D000052804D1FFE74FF40040099002E0002004
:1016E0000990FFE7FFE7FFE7FFE7FFE700F07EBEB7
:1016F00040F6D840C4F20240006800F0380007907D
:10170000079820B9FFE701F027FE099058E040F65E
:101710000040C4F202400068000100280AD5FFE73B
:101720000798082806D1FFE70AA8FFF7EFFC0B98F7
:10173000099044E040F60040C4F20240006880078F
:10174000002812D5FFE7079818280ED1FFE740F6CA
:101750000040C4F202400068C0F3C10149F2000039
:10176000C0F2D030C840099028E040F60040C4F2F2
:1017700002400068800500280AD5FFE70798202866
:1017800006D1FFE740F60010C0F23D00099014E0DA
:1017900040F6F040C4F2024000688007002808D5F7
:1017A000FFE70798282804D1FFE74FF4004009908D
:1017B00002E000200990FFE7FFE7FFE7FFE7FFE710
:1017C00000F014BE40F6D840C4F20240006800F4B5
:1017D000E0700790079820B9FFE701F0BDFD099080
:1017E0005AE040F60040C4F20240006800010028C0
:1017F0000AD5FFE70798402806D1FFE70AA8FFF7B8
:1018000085FC0B98099046E040F60040C4F2024087
:1018100000688007002812D5FFE70798C0280ED17E
:10182000FFE740F60040C4F202400068C0F3C10187
:1018300049F20000C0F2D030C84009902AE040F6DA
:101840000040C4F202400068800500280BD5FFE785
:101850000798B0F5807F06D1FFE740F60010C0F290
:101860003D00099015E040F6F040C4F202400068E7
:101870008007002809D5FFE70798B0F5A07F04D1BD
:10188000FFE74FF40040099002E000200990FFE7D5
:10189000FFE7FFE7FFE7FFE700F0A8BD40F6E04005
:1018A000C4F20240006800F0E0600790079820B999
:1018B000FFE701F079FD099053E00798B0F1807FD0
:1018C00006D1FFE70AA8FFF721FC0B98099047E033
:1018D00040F60040C4F2024000688007002813D59B
:1018E000FFE70798B0F1407F0ED1FFE740F60040D8
:1018F000C4F202400068C0F3C10149F20000C0F226
:10190000D030C84009902AE040F60040C4F20240BE
:101910000068800500280BD5FFE70798B0F1806FBD
:1019200006D1FFE740F60010C0F23D00099015E037
:1019300040F6F040C4F2024000688007002809D554
:10194000FFE70798B0F1A06F04D1FFE74FF4004024
:10195000099002E000200990FFE7FFE7FFE7FFE7BB
:10196000FFE700F043BD40F6E840C4F202400068E3
:1019700000F007000790079820B9FFE701F0D2FCBC
:1019800009905AE00798012804D1FFE701F020FDF3
:10199000099051E00798022806D1FFE70AA8FFF74F
:1019A000B5FB0C98099046E040F60040C4F20240B6
:1019B0000068800300280AD5FFE70798032806D1AE
:1019C000FFE741F20020C0F27A00099032E040F6D1
:1019D0000040C4F2024000688007002812D5FFE7EB
:1019E000079804280ED1FFE740F60040C4F20240F9
:1019F0000068C0F3C10149F20000C0F2D030C84015
:101A0000099016E040F60040C4F2024000688005EC
:101A100000280AD5FFE70798052806D1FFE740F61A
:101A20000010C0F23D00099002E000200990FFE79D
:101A3000FFE7FFE7FFE7FFE7FFE700F0D7BC40F66F
:101A4000E840C4F20240006800F00800079040F649
:101A5000F040C4F2024000688007002807D5FFE785
:101A6000079820B9FFE74FF40040099014E040F6D2
:101A7000F040C4F2024000680001002808D5FFE7EA
:101A80000798082804D1FFE74FF4FA40099002E0D4
:101A900000200990FFE7FFE700F0A8BC40F6E44013
:101AA000C4F20240006800F440300790079820B963
:101AB000FFE701F051FC099040E00798B0F5803F46
:101AC00006D1FFE70AA8FFF721FB0C98099034E044
:101AD00040F60040C4F2024000688007002813D599
:101AE000FFE70798B0F5003F0ED1FFE740F6004052
:101AF000C4F202400068C0F3C10149F20000C0F224
:101B0000D030C840099017E040F60040C4F20240CF
:101B10000068800500280BD5FFE70798B0F5403F27
:101B200006D1FFE740F60010C0F23D00099002E048
:101B300000200990FFE7FFE7FFE7FFE700F056BC52
:101B400040F6E440C4F20240006800F440200790F0
:101B5000079820B9FFE701F0FFFB099040E00798E4
:101B6000B0F5802F06D1FFE70AA8FFF7CFFA0C984F
:101B7000099034E040F60040C4F20240006880075B
:101B8000002813D5FFE70798B0F5002F0ED1FFE727
:101B900040F60040C4F202400068C0F3C10149F2BF
:101BA0000000C0F2D030C840099017E040F6004075
:101BB000C4F202400068800500280BD5FFE70798B3
:101BC000B0F5402F06D1FFE740F60010C0F23D000F
:101BD000099002E000200990FFE7FFE7FFE7FFE739
:101BE00000F004BC40F6E440C4F20240006800F09B
:101BF00040700790079820B9FFE701F0ADFB09900E
:101C00002BE00798B0F1807F06D1FFE70AA8FFF725
:101C10007DFA0C9809901FE040F60040C4F20240A3
:101C200000688007002813D5FFE70798B0F1007F10
:101C30000ED1FFE740F60040C4F202400068C0F356
:101C4000C10149F20000C0F2D030C840099002E062
:101C500000200990FFE7FFE7FFE700F0C7BB40F671
:101C6000E440C4F20240006800F04060079007982A
:101C700020B9FFE701F098FB09902BE00798B0F13D
:101C8000806F06D1FFE70AA8FFF740FA0C98099089
:101C90001FE040F60040C4F20240006880070028C0
:101CA00013D5FFE70798B0F1006F0ED1FFE740F6BC
:101CB0000040C4F202400068C0F3C10149F20000D4
:101CC000C0F2D030C840099002E000200990FFE740
:101CD000FFE7FFE78AE340F6DC40C4F20240006819
:101CE00000F4E060079007980490A0B1FFE7049823
:101CF000B0F5807F13D0FFE70498B0F5407F14D093
:101D0000FFE70498B0F5806F20D0FFE70498B0F5A6
:101D1000A06F2CD07BE001F047FB09907AE00AA885
:101D2000FFF7F4F90A98099074E040F6F040C4F225
:101D3000024000688007002804D5FFE74FF4004008
:101D4000099002E000200990FFE763E040F6F040D0
:101D5000C4F2024000680001002804D5FFE74FF4F8
:101D6000FA40099002E000200990FFE752E040F6B7
:101D7000E840C4F20240006800F04040089040F69D
:101D80000040C4F2024000688007002811D5FFE738
:101D9000089870B9FFE740F60040C4F202400068BE
:101DA000C0F3C10149F20000C0F2D030C840099030
:101DB0002CE040F60040C4F2024000688005002894
:101DC0000BD5FFE70898B0F1804F06D1FFE740F64A
:101DD0000010C0F23D00099017E040F60040C4F248
:101DE00002400068800300280BD5FFE70898B0F197
:101DF000004F06D1FFE741F20020C0F27A000990BF
:101E000002E000200990FFE7FFE7FFE702E0002083
:101E10000990FFE7EAE240F6DC40C4F202400068C5
:101E200000F4E040079007980390A0B1FFE7039803
:101E3000B0F5805F13D0FFE70398B0F5405F14D092
:101E4000FFE70398B0F5804F20D0FFE70398B0F587
:101E5000A04F2CD07BE001F07FFA09907AE00AA82D
:101E6000FFF754F90A98099074E040F6F040C4F284
:101E7000024000688007002804D5FFE74FF40040C7
:101E8000099002E000200990FFE763E040F6F0408F
:101E9000C4F2024000680001002804D5FFE74FF4B7
:101EA000FA40099002E000200990FFE752E040F676
:101EB000E840C4F20240006800F04040089040F65C
:101EC0000040C4F2024000688007002811D5FFE7F7
:101ED000089870B9FFE740F60040C4F2024000687D
:101EE000C0F3C10149F20000C0F2D030C8400990EF
:101EF0002CE040F60040C4F2024000688005002853
:101F00000BD5FFE70898B0F1804F06D1FFE740F608
:101F10000010C0F23D00099017E040F60040C4F206
:101F200002400068800300280BD5FFE70898B0F155
:101F3000004F06D1FFE741F20020C0F27A0009907D
:101F400002E000200990FFE7FFE7FFE702E0002042
:101F50000990FFE74AE240F6E840C4F20240006818
:101F600000F44070079040F60040C4F20240006860
:101F70008003002809D5FFE7079830B9FFE741F251
:101F80000020C0F27A0009901AE00798B0F5807F2F
:101F900006D1FFE70DA8FEF73DFF0E9809900EE071
:101FA0000798B0F5007F06D1FFE70AA8FFF7AEF863
:101FB0000B98099002E000200990FFE7FFE7FFE798
:101FC00014E240F6E040C4F20240006800F007006E
:101FD000079007980290042867D80299DFE801F07B
:101FE0000309650F15000DA8FEF714FF0E98099060
:101FF0005EE00AA8FFF78AF80A98099058E048F2CC
:102000000000C0F2BB00099052E040F6E840C4F284
:102010000240006800F04040089040F60040C4F2E2
:10202000024000688007002811D5FFE7089870B9C2
:10203000FFE740F60040C4F202400068C0F3C1016F
:1020400049F20000C0F2D030C84009902CE040F6C0
:102050000040C4F202400068800500280BD5FFE76D
:102060000898B0F1804F06D1FFE740F60010C0F2AB
:102070003D00099017E040F60040C4F202400068BD
:10208000800300280BD5FFE70898B0F1004F06D178
:10209000FFE741F20020C0F27A00099002E0002040
:1020A0000990FFE7FFE7FFE702E000200990FFE764
:1020B0009CE140F6E040C4F20240006800F03800C5
:1020C000079007980190202800F276800199DFE8B8
:1020D00001F0117373737373737317737373737383
:1020E000737373737373737373731D737373737316
:1020F000737323000DA8FEF78DFE0E9809905EE025
:102100000AA8FFF703F80A98099058E048F200007F
:10211000C0F2BB00099052E040F6E840C4F2024031
:10212000006800F04040089040F60040C4F20240D1
:1021300000688007002811D5FFE7089870B9FFE70D
:1021400040F60040C4F202400068C0F3C10149F209
:102150000000C0F2D030C84009902CE040F60040AA
:10216000C4F202400068800500280BD5FFE70898FC
:10217000B0F1804F06D1FFE740F60010C0F23D00FD
:10218000099017E040F60040C4F202400068800366
:1021900000280BD5FFE70898B0F1004F06D1FFE704
:1021A00041F20020C0F27A00099002E0002009907C
:1021B000FFE7FFE7FFE702E000200990FFE715E1F6
:1021C00040F6E040C4F20240006800F4E07007907E
:1021D0000798009068B1FFE7009840280FD0FFE70C
:1021E0000098C02811D0FFE70098B0F5807F12D08A
:1021F00061E00DA8FEF70EFE0E9809905EE00AA8B9
:10220000FEF784FF0A98099058E048F20000C0F2F7
:10221000BB00099052E040F6E840C4F2024000687A
:1022200000F04040089040F60040C4F202400068D0
:102230008007002811D5FFE7089870B9FFE740F63E
:102240000040C4F202400068C0F3C10149F200003E
:10225000C0F2D030C84009902CE040F60040C4F2F3
:1022600002400068800500280BD5FFE70898B0F110
:10227000804F06D1FFE740F60010C0F23D00099004
:1022800017E040F60040C4F20240006880030028D6
:102290000BD5FFE70898B0F1004F06D1FFE741F2F8
:1022A0000020C0F27A00099002E000200990FFE7C8
:1022B000FFE7FFE702E000200990FFE796E040F625
:1022C000E840C4F20240006800F03000079040F699
:1022D0000040C4F2024000688004002809D5FFE7EE
:1022E000079830B9FFE746F60040C0F2DC200990BD
:1022F0003AE040F60040C4F2024000688001002845
:102300000AD5FFE70798102806D1FFE70DA8FEF7CA
:1023100081FD0E98099026E040F6F040C4F202409C
:1023200000688007002808D5FFE70798202804D117
:10233000FFE74FF40040099014E040F6F040C4F28B
:10234000024000680001002808D5FFE70798302800
:1023500004D1FFE74FF4FA40099002E00020099011
:10236000FFE7FFE7FFE7FFE740E040F6E440C4F2A5
:102370000240006800F0300007900798102806D14E
:10238000FFE70DA8FEF746FD0E9809902EE040F6F7
:102390000040C4F202400068000100280AD5FFE7AF
:1023A0000798202806D1FFE70AA8FEF7AFFE0B9892
:1023B000099016E040F60040C4F202400068800434
:1023C00000280AD5FFE70798302806D1FFE746F630
:1023D0000040C0F2DC20099002E000200990FFE7F5
:1023E000FFE7FFE702E000200990FFE7FFE7099819
:1023F00012B080BD80B596B0159000208DF84B00CE
:102400008DF84A001598C078C00760B1FFE740F624
:10241000E841C4F20241086820F04040159A126B6E
:1024200010430860FFE715980068C00780B3FFE716
:102430001598406B1190052810D81199DFE801F02C
:1024400003040E0B0C0D0DE01598083003F0F0FF9F
:102450008DF84B0006E005E004E003E001208DF874
:102460004B00FFE79DF84B0060B9FFE740F6D8410D
:10247000C4F20241086820F00700159A526B10431D
:10248000086004E09DF84B008DF84A00FFE7FFE785
:10249000159800788007002840F14380FFE71598E1
:1024A000806B1090282822D81099DFE801F01520C1
:1024B0002020202020201620202020202020202026
:1024C0002020202020201D202020202020201E2011
:1024D0002020202020201F000DE01598083003F058
:1024E000A7FF8DF84B0006E005E004E003E00120C3
:1024F0008DF84B00FFE79DF84B0060B9FFE740F611
:10250000D841C4F20241086820F03800159A926B55
:102510001043086004E09DF84B008DF84A00FFE787
:10252000FFE715980078400700283CD5FFE715988D
:10253000C06B0F9090B1FFE70F9840280FD0FFE7D6
:102540000F98C02812D0FFE70F98B0F5807F0ED00B
:10255000FFE70F98B0F5A07F0AD00AE00DE01598CC
:10256000083003F065FF8DF84B0006E005E004E05D
:1025700003E001208DF84B00FFE79DF84B0060B9A8
:10258000FFE740F6D841C4F20241086820F4E07049
:10259000159AD26B1043086004E09DF84B008DF84B
:1025A0004A00FFE7FFE715984078C00600283ED5AF
:1025B000FFE71598006C0E90A0B1FFE70E98B0F100
:1025C000807F10D0FFE70E98B0F1407F12D0FFE778
:1025D0000E98B0F1806F0ED0FFE70E98B0F1A06FAB
:1025E0000AD00AE00DE01598083003F021FF8DF8BD
:1025F0004B0006E005E004E003E001208DF84B000D
:10260000FFE79DF84B0060B9FFE740F6E041C4F2F8
:102610000241086820F0E060159A126C10430860CF
:1026200004E09DF84B008DF84A00FFE7FFE715989E
:1026300040788006002838D5FFE71598406C0D904B
:1026400078B1FFE70D98B0F5803F0BD0FFE70D980C
:10265000B0F5003F0DD0FFE70D98B0F5403F09D031
:1026600009E00CE01598083003F0E2FE8DF84B000D
:1026700005E004E003E001208DF84B00FFE79DF842
:102680004B0060B9FFE740F6E441C4F2024108683C
:1026900020F44030159A526C1043086004E09DF815
:1026A0004B008DF84A00FFE7FFE715984078400699
:1026B000002838D5FFE71598806C0C9078B1FFE7BB
:1026C0000C98B0F5802F0BD0FFE70C98B0F5002FD9
:1026D0000DD0FFE70C98B0F5402F09D009E00CE0D1
:1026E0001598083003F0A4FE8DF84B0005E004E0D7
:1026F00003E001208DF84B00FFE79DF84B0060B927
:10270000FFE740F6E441C4F20241086820F44020AB
:10271000159A926C1043086004E09DF84B008DF808
:102720004A00FFE7FFE715988078C00790B3FFE7FE
:102730001598C06C0B9050B1FFE70B98B0F1807FFB
:1027400006D0FFE70B98B0F1007F08D008E00BE05F
:102750001598083003F06CFE8DF84B0004E003E0A0
:1027600001208DF84B00FFE79DF84B0060B9FFE7B3
:1027700040F6E441C4F20241086820F04070159A26
:10278000D26C1043086004E09DF84B008DF84A00BD
:10279000FFE7FFE715984079C006002832D5FFE72C
:1027A0001598006D0A9050B1FFE70A98B0F1806F5C
:1027B00006D0FFE70A98B0F1006F08D008E00BE000
:1027C0001598083003F034FE8DF84B0004E003E068
:1027D00001208DF84B00FFE79DF84B0060B9FFE743
:1027E00040F6E441C4F20241086820F04060159AC6
:1027F000126D1043086004E09DF84B008DF84A000C
:10280000FFE7FFE7159840790007002811D5FFE79B
:10281000FFE740F61C41C4F20241086820F4004082
:1028200008601598D0F88020086810430860FFE71A
:10283000FFE715988078800700283ED5FFE71598B8
:10284000406D0990A0B1FFE70998B0F5807F10D0E6
:10285000FFE70998B0F5407F12D0FFE70998B0F57F
:10286000806F0ED0FFE70998B0F5A06F0AD00AE09C
:102870000DE01598083003F0DBFD8DF84B0006E005
:1028800005E004E003E001208DF84B00FFE79DF830
:102890004B0060B9FFE740F6DC41C4F20241086832
:1028A00020F4E060159A526D1043086004E09DF832
:1028B0004B008DF84A00FFE7FFE715988078400746
:1028C00000283ED5FFE71598806D0890A0B1FFE77E
:1028D0000898B0F5805F10D0FFE70898B0F5405F2A
:1028E00012D0FFE70898B0F5804F0ED0FFE70898A8
:1028F000B0F5A04F0AD00AE00DE01598083003F0BB
:1029000097FD8DF84B0006E005E004E003E00120B0
:102910008DF84B00FFE79DF84B0060B9FFE740F6EC
:10292000DC41C4F20241086820F4E040159A926D3F
:102930001043086004E09DF84B008DF84A00FFE763
:10294000FFE7159880788006002832D5FFE71598B4
:10295000406E0790022809D3FFE70798022806D0A7
:10296000FFE707980338032808D308E00BE0159821
:10297000083003F05DFD8DF84B0004E003E001201A
:102980008DF84B00FFE79DF84B0060B9FFE740F67C
:10299000E841C4F20241086820F00700159A526E1F
:1029A0001043086004E09DF84B008DF84A00FFE7F3
:1029B000FFE7159840798007002825D5FFE715988F
:1029C000806E069020B1FFE70698082801D001E04C
:1029D00004E003E001208DF84B00FFE79DF84B0079
:1029E00060B9FFE740F6E841C4F20241086820F010
:1029F0000800159A926E1043086004E09DF84B00A1
:102A00008DF84A00FFE7FFE71598C0788007002897
:102A100040F1B180FFE740F62401C4F202410868AA
:102A200040F001000860FEF711F91390FFE740F64F
:102A30002400C4F202400068C00760B9FFE7FEF757
:102A400005F91399401A032804D3FFE703208DF8F2
:102A50004B0000E0EBE79DF84B00002840F085803C
:102A6000FFE740F6F040C4F20240006800F4407016
:102A700014901498C8B1FFE714981599896F88428B
:102A800013D0FFE740F6F041C4F20241086820F499
:102A900040701490086840F480300860086820F4A2
:102AA0008030086014980860FFE79DF85000C00768
:102AB000E0B1FFE7FEF7CAF81390FFE740F6F040F9
:102AC000C4F202400068800700280ED4FFE7FEF73A
:102AD000BDF81399401A41F28931884204D3FFE7C7
:102AE00003208DF84B0000E0E8E7FFE79DF84B007E
:102AF000A8BBFFE7FFE71598806F00F44070B0F5C2
:102B0000407F12D1FFE740F61C41C4F20241086841
:102B100020F47C50159A926F4FF6F043C0F6FF7385
:102B20001A4040EA1210086008E040F61C41C4F266
:102B30000241086820F47C500860FFE740F6F0414D
:102B4000C4F20241086820F4407008601598826F52
:102B50006FF31F32086810430860FFE704E09DF838
:102B60004B008DF84A00FFE704E09DF84B008DF81C
:102B70004A00FFE7FFE71598C0784007002837D5DF
:102B8000FFE71598006E059060B1FFE705981028E3
:102B900009D0FFE7059820280ED0FFE705983028D8
:102BA0000BD00BE00EE040F62841C4F20241086869
:102BB00040F40030086005E004E003E001208DF8F7
:102BC0004B00FFE79DF84B0060B9FFE740F6E84196
:102BD000C4F20241086820F03000159A126E1043CA
:102BE000086004E09DF84B008DF84A00FFE7FFE71E
:102BF0001598C0780007002837D5FFE71598C06EF4
:102C00000490042817D80499DFE801F0030C151389
:102C1000140040F62841C4F20241086840F4003034
:102C200008600CE01598083003F002FC8DF84B00AA
:102C300005E004E003E001208DF84B00FFE79DF87C
:102C40004B0060B9FFE740F6E041C4F2024108687A
:102C500020F00700159AD26E1043086004E09DF83A
:102C60004B008DF84A00FFE7FFE71598C078C006D3
:102C7000002845D5FFE71598006F0390202825D838
:102C80000399DFE801F011232323232323231A23AD
:102C90002323232323232323232323232323212306
:102CA000232323232323220040F62841C4F2024198
:102CB000086840F4003008600CE01598083003F014
:102CC000B7FB8DF84B0005E004E003E001208DF830
:102CD0004B00FFE79DF84B0060B9FFE740F6E0418D
:102CE000C4F20241086820F03800159A126F1043B0
:102CF000086004E09DF84B008DF84A00FFE7FFE70D
:102D00001598C078800600283ED5FFE71598406FDB
:102D1000029068B1FFE70298402812D0FFE70298BE
:102D2000C02815D0FFE70298B0F5807F11D011E0E0
:102D300040F62841C4F20241086840F400300860BF
:102D40000CE01598083003F073FB8DF84B0005E09C
:102D500004E003E001208DF84B00FFE79DF84B00F5
:102D600060B9FFE740F6E041C4F20241086820F490
:102D7000E070159A526F1043086004E09DF84B0014
:102D80008DF84A00FFE7FFE7159800794007002813
:102D90003AD5FFE71598C06D019050B1FFE7019853
:102DA000B0F5807F06D0FFE70198B0F5007F0AD02C
:102DB00010E013E040F62841C4F20241086840F4F4
:102DC000003008600AE01598083003F031FB8DF8F8
:102DD0004B0003E001208DF84B00FFE79DF84B000E
:102DE00060B9FFE740F6E841C4F20241086820F408
:102DF0004070159AD26D1043086004E09DF84B00B6
:102E00008DF84A00FFE7FFE715980079C006002813
:102E100039D5FFE71598C06F0090102808D0FFE75C
:102E2000009820280DD0FFE70098302810D010E03F
:102E300040F62841C4F20241086840F400300860BE
:102E40000BE01598083003F0F3FA8DF84B0004E01E
:102E500003E001208DF84B00FFE79DF84B0060B9BF
:102E6000FFE740F6E441C4F20241086820F0300078
:102E7000159AD26F1043086004E09DF84B008DF85E
:102E80004A00FFE7FFE79DF84A0016B080BD00004A
:102E900080B586B004900391049820B9FFE7012023
:102EA0008DF817003AE2039842F20001C4F20201E1
:102EB000096801F00F01884216D9FFE742F20000CD
:102EC000C4F20200016821F00F01039A114301606E
:102ED000006800F00F000399884204D0FFE701204A
:102EE0008DF817001AE2FFE704980078C006002862
:102EF0001BD5FFE70498406940F62041C4F2024127
:102F0000096801F4E041B0EB112F0DD9FFE740F65D
:102F10002041C4F20241086820F4E040049A52695A
:102F200040EA02200860FFE7FFE704980078000706
:102F300000281BD5FFE70498006940F62041C4F241
:102F40000241096801F4E061B0EB111F0DD9FFE700
:102F500040F62041C4F20241086820F4E060049A7F
:102F6000126940EA02100860FFE7FFE70498007862
:102F70004007002819D5FFE70498C06840F62041B3
:102F8000C4F20241096801F0700188420CD9FFE7E0
:102F900040F62041C4F20241086820F07000049A13
:102FA000D26810430860FFE7FFE7049800788007C5
:102FB000002819D5FFE70498806840F62041C4F244
:102FC0000241096801F00F0188420CD9FFE740F681
:102FD0002041C4F20241086820F00F00049A926870
:102FE00010430860FFE7FFE704980078C007002857
:102FF00000F0D180FFE70498406803280ED1FFE776
:1030000040F60040C4F2024000688001002804D469
:10301000FFE701208DF8170080E135E00498406853
:1030200002280ED1FFE740F60040C4F202400068DB
:103030008003002804D4FFE701208DF817006DE11C
:1030400021E00498406801280ED1FFE740F60040D7
:10305000C4F2024000688005002804D4FFE7012084
:103060008DF817005AE10DE040F60040C4F202402E
:1030700000688007002804D4FFE701208DF81700BE
:103080004CE1FFE7FFE7FFE740F61C41C4F20241D5
:10309000086820F00300049A526810430860FDF7A6
:1030A000D5FD01900498406803281AD1FFE7FFE797
:1030B00040F61C40C4F20240006800F018001828D6
:1030C0000ED0FFE7FDF7C2FD0199401A41F28931A8
:1030D000884204D3FFE703208DF817001EE1E7E7DD
:1030E00058E00498406802281AD1FFE7FFE740F64D
:1030F0001C40C4F20240006800F0180010280ED0F6
:10310000FFE7FDF7A3FD0199401A41F2893188429A
:1031100004D3FFE703208DF81700FFE0E7E738E06E
:103120000498406801281AD1FFE7FFE740F61C40E9
:10313000C4F20240006800F0180008280ED0FFE733
:10314000FDF784FD0199401A41F28931884204D388
:10315000FFE703208DF81700E0E0E7E718E0FFE75E
:1031600040F61C40C4F20240006810F0180F0ED068
:10317000FFE7FDF76BFD0199401A41F28931884262
:1031800004D3FFE703208DF81700C7E0E8E7FFE767
:10319000FFE7FFE7FFE7049800788007002819D5CC
:1031A000FFE70498806840F62041C4F202410968B4
:1031B00001F00F0188420CD2FFE740F62041C4F233
:1031C0000241086820F00F00049A926810430860DA
:1031D000FFE7FFE7039842F20001C4F20201096829
:1031E00001F00F01884216D2FFE742F20000C4F25C
:1031F0000200016821F00F01039A11430160006889
:1032000000F00F000399884204D0FFE701208DF8F9
:10321000170083E0FFE7049800784007002819D5DD
:10322000FFE70498C06840F62041C4F202410968F3
:1032300001F0700188420CD2FFE740F62041C4F251
:103240000241086820F07000049AD26810430860B8
:10325000FFE7FFE704980078000700281BD5FFE789
:103260000498006940F62041C4F20241096801F463
:10327000E061B0EB111F0DD2FFE740F62041C4F230
:103280000241086820F4E060049A126940EA0210E2
:103290000860FFE7FFE704980078C00600281BD508
:1032A000FFE70498406940F62041C4F202410968F2
:1032B00001F4E041B0EB112F0DD2FFE740F62041C1
:1032C000C4F20241086820F4E040049A526940EADE
:1032D00002200860FFE7FFE700F07AF840F620419F
:1032E000C4F20241096801F00F0248F29A71C0F677
:1032F0000001895CC84040F20001C2F20001086090
:1033000040F20800C2F200000068FDF709FD8DF8E8
:103310000B009DF80B008DF81700FFE79DF81700D4
:1033200006B080BD80B500F053F840F62041C4F2ED
:103330000241096801F00F0248F29A71C0F60001DB
:10334000895C01F01F0120FA01F140F20000C2F295
:1033500000000160006880BD80B5FFF7E3FF40F624
:103360002041C4F202410968C1F3021248F2AA7175
:10337000C0F60001895C01F01F01C84080BD00005B
:1033800080B5FFF7CFFF40F62041C4F20241096843
:10339000C1F3022248F2AA71C0F60001895C01F073
:1033A0001F01C84080BD000080B5FFF7BBFF40F69D
:1033B0002041C4F202410968C1F3023248F2AA7105
:1033C000C0F60001895C01F01F01C84080BD00000B
:1033D00089B040F61C40C4F20240006800F01800BA
:1033E000082806D1FFE740F60010C0F23D00049027
:1033F00048E140F61C40C4F20240006810F0180F8B
:1034000021D1FFE740F60040C4F20240006800F01E
:1034100020010020B0EB511F0ED0FFE740F6004026
:10342000C4F202400068C0F3C10149F20000C0F2DA
:10343000D030C840049005E049F20000C0F2D0301E
:103440000490FFE71DE140F61C40C4F20240006812
:1034500000F01800102806D1FFE741F20020C0F26A
:103460007A0004900CE140F61C40C4F2024000686F
:1034700000F01800182840F0FC80FFE740F62840D4
:10348000C4F20240016801F0030108910168C1F330
:10349000052106910068C0F300100590059840F6DC
:1034A0003841C4F20241096889B2C90800FB01F041
:1034B00000EE100AB8EE400A8DED020A06980028C8
:1034C00000F0D380FFE708980090012809D0FFE7BB
:1034D0000098022800F08D80FFE70098032864D050
:1034E00088E040F60040C4F20240006800F020018D
:1034F0000020B0EB511F33D0FFE740F60040C4F28C
:1035000002400068C0F3C10149F20000C0F2D030AF
:10351000C84003909DED030AB8EE400A9DED061ADF
:10352000B8EE411A80EE010A40F63440C4F202407F
:1035300000686FF35F2001EE100AB8EE411A9DEDAE
:10354000022A9FED533A82EE032A31EE021AB7EEB9
:10355000002A31EE021A20EE010A8DED010A23E065
:103560009DED060AB8EE401A9FED4A0A80EE010A68
:1035700040F63440C4F2024000686FF35F2001EE71
:10358000100AB8EE411A9DED022A9FED413A82EEF3
:10359000032A31EE021AB7EE002A31EE021A20EEAB
:1035A000010A8DED010AFFE748E09DED060AB8EE3D
:1035B000401A9FED360A80EE010A40F63440C4F20C
:1035C000024000686FF35F2001EE100AB8EE411A66
:1035D0009DED022A9FED2E3A82EE032A31EE021A69
:1035E000B7EE002A31EE021A20EE010A8DED010A33
:1035F00024E0FFE79DED060AB8EE401A9FED260A8B
:1036000080EE010A40F63440C4F2024000686FF3D5
:103610005F2001EE100AB8EE411A9DED022A9FEDDF
:103620001C3A82EE032A31EE021AB7EE002A31EE7E
:10363000021A20EE010A8DED010AFFE740F6344040
:10364000C4F20240006881B2012000EB51200790D3
:103650009DED010A9DED071AB8EE411A80EE010AB0
:10366000BCEEC00A8DED040A02E000200490FFE7E2
:1036700005E049F20000C0F2D0300490FFE7FFE718
:10368000FFE7FFE7049809B0704700BF0024F44A41
:10369000000000460024744C0024744A80B588B0B1
:1036A0000690069828B9FFE701208DF81F0000F06A
:1036B000EFBC40F61C40C4F20240006800F0180065
:1036C000049040F62840C4F20240006800F0030075
:1036D000039006980078C006002840F18080FFE73C
:1036E0000498082808D0FFE7049818281DD1FFE7A0
:1036F0000398022819D1FFE70698C06928B9FFE7A7
:1037000001208DF81F0000F0C3BCFFE740F6184110
:10371000C4F20241086820F47C10069A126A40EA5A
:1037200002400860FFE7FFE758E00698C06988B3E9
:10373000FFE740F60041C4F20241086840F480709F
:103740000860FDF783FA0590FFE740F60040C4F2F9
:1037500002400068800500280DD4FFE7FDF776FAE7
:103760000599401A032805D3FFE703208DF81F00B1
:1037700000F08EBCE9E7FFE740F61841C4F20241D1
:10378000086820F47C10069A126A40EA0240086039
:10379000FFE722E040F60041C4F20241086820F44D
:1037A00080700860FDF752FA0590FFE740F6004090
:1037B000C4F202400068800500280DD5FFE7FDF740
:1037C00045FA0599401A032805D3FFE703208DF831
:1037D0001F0000F05DBCE9E7FFE7FFE7FFE70698A1
:1037E0000078C007002800F0B980FFE7049810288F
:1037F00008D0FFE7049818280ED1FFE703980328A4
:103800000AD1FFE70698406828B9FFE701208DF844
:103810001F0000F03DBCA0E0FFE706984068B0F54F
:10382000803F09D1FFE740F60041C4F20241086839
:1038300040F48030086056E00698406888B9FFE799
:1038400040F60041C4F20241086820F4803008606C
:10385000086820F480100860086820F48020086060
:1038600040E006984068B0F5A02F11D1FFE740F680
:103870000041C4F20241086840F4802008600868F2
:1038800020F480100860086840F48030086028E068
:1038900006984068B0F5A81F11D1FFE740F6004137
:1038A000C4F20241086840F480200860086840F4CF
:1038B00080100860086840F48030086010E040F62E
:1038C0000041C4F20241086820F4803008600868B2
:1038D00020F480200860086820F480100860FFE76A
:1038E000FFE7FFE7FFE7FFE706984068D0B1FFE793
:1038F000FDF7ACF90590FFE740F60040C4F2024046
:103900000068800300280CD4FFE7FDF79FF90599B4
:10391000401A652804D3FFE703208DF81F00B7E3A2
:10392000EAE719E0FDF792F90590FFE740F600405D
:10393000C4F202400068800300280CD5FFE7FDF7C1
:1039400085F90599401A652804D3FFE703208DF80F
:103950001F009DE3EAE7FFE7FFE7FFE7069800782F
:103960008007002840F1C380FFE7049840B1FFE7DB
:10397000049818285ED1FFE7039801285AD1FFE781
:103980000698C06820B9FFE701208DF81F007FE38B
:10399000049840BBFFE740F60040C4F202400068D4
:1039A00000F018000699096988421BD0FFE740F62D
:1039B0000041C4F20241086820F01800069A12691A
:1039C00010430860FFF7AEFC40F20800C2F20000AE
:1039D0000068FDF7A5F920B1FFE701208DF81F0071
:1039E00056E3FFE7FFE7FDF731F90590FFE740F603
:1039F0000040C4F202400068800700280CD4FFE7B2
:103A0000FDF724F90599401A032804D3FFE70320A2
:103A10008DF81F003CE3EAE740F61041C4F2024192
:103A2000086820F4FE00069A526940EA02400860E5
:103A3000FFE75BE00698C068A8B3FFE740F60041E7
:103A4000C4F20241086820F01800069A1269104377
:103A50000860086840F001000860FDF7F7F805907D
:103A6000FFE740F60040C4F20240006880070028EB
:103A70000CD4FFE7FDF7EAF80599401A032804D3B0
:103A8000FFE703208DF81F0002E3EAE740F610414C
:103A9000C4F20241086820F4FE00069A526940EA26
:103AA0000240086021E040F60041C4F2024108688B
:103AB00020F001000860FDF7C9F80590FFE740F627
:103AC0000040C4F202400068800700280CD5FFE7E0
:103AD000FDF7BCF80599401A032804D3FFE703203B
:103AE0008DF81F00D4E2EAE7FFE7FFE7FFE706985B
:103AF00000780007002849D5FFE70698806910B3D1
:103B0000FFE740F6F041C4F20241086840F08060EF
:103B10000860FDF79BF80590FFE740F6F040C4F21F
:103B200002400068000100280CD4FFE7FDF78EF882
:103B30000599401A032804D3FFE703208DF81F00DE
:103B4000A6E2EAE721E040F6F041C4F2024108684B
:103B500020F080600860FDF779F80590FFE740F6F7
:103B6000F040C4F202400068000100280CD5FFE7D5
:103B7000FDF76CF80599401A032804D3FFE70320EA
:103B80008DF81F0084E2EAE7FFE7FFE70698007878
:103B90004007002840F1CC80FFE740F62400C4F243
:103BA00002400068C00708BBFFE740F62401C4F2EA
:103BB0000241086840F001000860FDF747F80590F1
:103BC000FFE740F62400C4F202400068C00760B975
:103BD000FFE7FDF73BF80599401A032804D3FFE7F8
:103BE00003208DF81F0053E2EBE7FFE7FFE706989D
:103BF0008068012809D1FFE740F6F041C4F2024194
:103C0000086840F00100086054E00698806888B9B0
:103C1000FFE740F6F041C4F20241086820F00100DD
:103C20000860086820F080000860086820F0040040
:103C300008603EE006988068052811D1FFE740F64D
:103C4000F041C4F20241086840F0040008600868CE
:103C500020F080000860086840F00100086027E05C
:103C600006988068852811D1FFE740F6F041C4F23C
:103C70000241086840F004000860086840F08000D5
:103C80000860086840F00100086010E040F6F0416C
:103C9000C4F20241086820F001000860086820F0C2
:103CA00004000860086820F080000860FFE7FFE774
:103CB000FFE7FFE7FFE706988068E0B1FFE7FCF762
:103CC000C5FF0590FFE740F6F040C4F202400068EF
:103CD000800700280ED4FFE7FCF7B8FF0599401ACB
:103CE00041F28931884204D3FFE703208DF81F0099
:103CF000CEE1E8E71BE0FCF7A9FF0590FFE740F6FF
:103D0000F040C4F202400068800700280ED5FFE7AB
:103D1000FCF79CFF0599401A41F28931884204D38F
:103D2000FFE703208DF81F00B2E1E8E7FFE7FFE7B8
:103D3000069800788006002849D5FFE70698406A73
:103D400010B3FFE740F60041C4F20241086840F4B6
:103D500080500860FCF77AFF0590FFE740F60040CE
:103D6000C4F202400068800400280CD4FFE7FCF78E
:103D70006DFF0599401A032804D3FFE703208DF84F
:103D80001F0085E1EAE721E040F60041C4F202416C
:103D9000086820F480500860FCF758FF0590FFE7A2
:103DA00040F60040C4F202400068800400280CD5B0
:103DB000FFE7FCF74BFF0599401A032804D3FFE700
:103DC00003208DF81F0063E1EAE7FFE7FFE70698AD
:103DD000806A002800F05881FFE70498182800F056
:103DE000D580FFE70698806A022840F0A180FFE7AF
:103DF00040F60041C4F20241086820F0807008607B
:103E0000FCF724FF0590FFE740F60040C4F20240B3
:103E10000068800100280CD5FFE7FCF717FF059923
:103E2000401A032804D3FFE703208DF81F002FE179
:103E3000EAE7FFE740F62841C4F20241086843F68A
:103E400003729043069BDA6A1B6B42EA032210431B
:103E500008600699486BD1F838C0CB6B0A6C013802
:103E60006FF35F204FF60061CFF6FF7101EB4C213D
:103E700089B208440021CFF6FF7101EB034101F440
:103E8000FE0108444FF07F4101EB026101F0FE4169
:103E9000084440F63441C4F202410860FFE740F6AE
:103EA0002841C4F202410091086820F01000086027
:103EB0000698C06CC00040F63842C4F2024210605E
:103EC000086840F010000860086820F00C00069AAE
:103ED000526C10430860086820F02000069A926C2B
:103EE00010430860086840F48030086040F60041E4
:103EF000C4F20241086840F080700860FCF7A6FE3A
:103F00000590FFE740F60040C4F2024000688001DF
:103F100000280CD4FFE7FCF799FE0599401A032806
:103F200004D3FFE703208DF81F00B1E0EAE72CE09F
:103F300040F60041C4F20241086820F08070086039
:103F4000FCF784FE0590FFE740F60040C4F2024013
:103F50000068800100280CD5FFE7FCF777FE059983
:103F6000401A032804D3FFE703208DF81F008FE0D9
:103F7000EAE740F62841C4F2024108684FF6FC72B5
:103F8000CFF6F87210400860FFE77CE040F628406A
:103F9000C4F202400068029040F63440C4F202408D
:103FA000006801900698806A012837D0FFE70298E0
:103FB00000F003000699C96A88422FD1FFE70298F2
:103FC00000F47C510698006BB0EB112F26D1FFE76F
:103FD00001986FF35F200699496B013988421DD122
:103FE000FFE7BDF804100698806B0138B0EB512F45
:103FF00014D1FFE7019800F4FE010698C06B013868
:10400000B0EB114F0AD1FFE7019800F0FE4106988E
:10401000006C0138B0EB116F04D0FFE701208DF880
:104020001F0035E040F63840C4F20240006881B21B
:104030000698C06CB0EBD10F24D0FFE740F62841C2
:10404000C4F20241086820F010000860FCF7FEFD91
:104050000590FFE7FCF7FAFD0599401A08B9FFE75C
:10406000F8E70698C06CC00040F63841C4F202413F
:10407000086040F62841C4F20241086840F0100090
:104080000860FFE7FFE7FFE700208DF81F00FFE76C
:104090009DF81F0008B080BD80B582B001900198E6
:1040A00002F07EFA02B080BD81B0009001B070478E
:1040B00081B0009001B0704781B0009001B07047AE
:1040C00081B0009001B0704781B0009001B070479E
:1040D00081B0009001B0704785B003900291FFE776
:1040E000039890F83C00012804D1FFE702208DF8E6
:1040F000130068E00399012081F83C00FFE7FFE727
:104100000399022081F83D000398006840680190FF
:1041100003980068806800900398006842F60041A8
:10412000C4F2010188420AD1FFE7019820F470002F
:10413000019002984168019808430190FFE70198B7
:104140004FF68F71CFF6FF51084001900298016839
:104150000198084301900198039909684860039801
:10416000006842F60041C4F2010188420FD0FFE727
:1041700003980068B0F1804F09D0FFE7039800680A
:1041800040F20041C4F2000188420ED1FFE70098DE
:1041900020F0800000900298816800980843009009
:1041A0000098039909688860FFE70399012081F866
:1041B0003D00FFE70399002081F83C00FFE7002065
:1041C0008DF81300FFE79DF8130005B0704700005D
:1041D00081B0009001B0704780B582B00090009827
:1041E00020B9FFE701208DF8070045E0009890F81E
:1041F0003D0040B9FFE70099002081F83C0000989D
:1042000000F03EF8FFE70099022081F83D00009998
:1042100051F8040B02F0F6FA0099012081F84800E9
:10422000FFE70099012081F83E00009981F83F00E6
:10423000009981F84000009981F84100009981F8C7
:104240004200009981F84300FFE7FFE70099012051
:1042500081F84400009981F84500009981F84600F2
:10426000009981F84700FFE70099012081F83D009F
:1042700000208DF80700FFE79DF8070002B080BD21
:1042800080B58AB009900998006842F60041C4F2EE
:104290000101884219D1FFE7FFE740F6A440C4F2CC
:1042A0000240016841F400610160006800F40060B0
:1042B00008900898FFE72A20049001210022FCF7CB
:1042C00089FD0498FCF77CFD65E009980068B0F171
:1042D000804F19D1FFE7FFE740F69C40C4F202404F
:1042E000016841F001010160006800F001000790E1
:1042F0000798FFE72D20039001210022FCF76AFDBB
:104300000398FCF75DFD45E00998006840F2004124
:10431000C4F20001884219D1FFE7FFE740F69C4054
:10432000C4F20240016841F002010160006800F03F
:10433000020006900698FFE72E200290012100223D
:10434000FCF748FD0298FCF73BFD22E00998006865
:1043500041F20001C4F20001884219D1FFE7FFE7F2
:1043600040F69C40C4F20240016841F01001016037
:10437000006800F0100005900598FFE731200190DB
:1043800001210022FCF726FD0198FCF719FDFFE74B
:10439000FFE7FFE7FFE70AB080BD000083B00190B0
:1043A000019890F83D00012804D0FFE701208DF826
:1043B0000B0045E00199022081F83D000198016859
:1043C000C86840F00100C8600198006842F60041EA
:1043D000C4F2010188420FD0FFE701980068B0F1F4
:1043E000804F09D0FFE70198006840F20041C4F215
:1043F0000001884219D1FFE7019800688068072111
:10440000C0F2010108400090009806280CD0FFE798
:104410000098B0F5803F07D0FFE701980168086871
:1044200040F001000860FFE706E0019801680868B5
:1044300040F001000860FFE700208DF80B00FFE767
:104440009DF80B0003B0704781B0009000980168A0
:10445000C86820F00100C860FFE700980068006AA3
:1044600041F21111084210D1FFE700980068006A7C
:1044700044F24441084207D1FFE700980168086808
:1044800020F001000860FFE7FFE7FFE70099012047
:1044900081F83D00002001B07047000080B586B073
:1044A0000490039100208DF80B00FFE7049890F82A
:1044B0003C00012804D1FFE702208DF81700EDE051
:1044C0000499012081F83C00FFE7FFE704990220EE
:1044D00081F83D00049800688068019001984FF6CB
:1044E0008871CFF6CE7108400190019820F47F408A
:1044F0000190019804990968886003980068009009
:10450000002800F0B180FFE70098102800F0AC8090
:10451000FFE70098202800F0A780FFE700983028E8
:1045200000F0A280FFE70098402800F09080FFE7AD
:104530000098502871D0FFE7009860287AD0FFE7F4
:104540000098702845D0FFE70098B0F5805F3FD015
:10455000FFE70098B0F5005F50D0FFE70098B0F596
:10456000801F00F08180FFE70098B0F1101F7BD022
:10457000FFE700982021C0F21001884274D0FFE7C5
:1045800000983021C0F2100188426DD0FFE70098FA
:104590004021C0F21001884266D0FFE70098502108
:1045A000C0F2100188425FD0FFE700986021C0F29E
:1045B0001001884258D0FFE700987021C0F2100126
:1045C000884251D0FFE70098B0F5001F4CD052E070
:1045D00055E004980068039B5A689968DB6802F00C
:1045E00095F90498006880680190019840F0770080
:1045F0000190019804990968886040E00498006877
:10460000039B5A689968DB6802F080F90498016896
:10461000886840F48040886031E004980068039A1C
:104620005168D26802F0F0FB04980068502102F053
:1046300087F924E004980068039A5168D26802F070
:104640000BFC04980068602102F07AF917E00498E6
:104650000068039A5168D26802F0D6FB049800689B
:10466000402102F06DF90AE0049800680399096896
:1046700002F066F903E001208DF80B00FFE70499D2
:10468000012081F83D00FFE70499002081F83C00FB
:10469000FFE79DF80B008DF81700FFE79DF8170066
:1046A00006B080BD81B0009001B0704780B584B085
:1046B000039003980068C06802900398006800693E
:1046C00001909DF804008007002824D5FFE79DF89D
:1046D0000800800700281DD5FFE7039801686FF0E8
:1046E0000200086103990120087703980068806937
:1046F000800720B1FFE70398FFF7D4FF06E0039897
:1047000000F0BAF9039800F0EBFAFFE703990020F4
:104710000877FFE7FFE79DF804004007002825D54C
:10472000FFE79DF80800400700281ED5FFE7039823
:1047300001686FF00400086103990220087703986C
:104740000068806910F4407F04D0FFE70398FFF70A
:10475000A9FF06E0039800F08FF9039800F0C0FA73
:10476000FFE7039900200877FFE7FFE79DF80400C3
:104770000007002824D5FFE79DF80800000700285F
:104780001DD5FFE7039801686FF0080008610399E1
:104790000420087703980068C069800720B1FFE70C
:1047A0000398FFF77FFF06E0039800F065F9039890
:1047B00000F096FAFFE7039900200877FFE7FFE78C
:1047C0009DF80400C006002825D5FFE79DF80800E5
:1047D000C00600281ED5FFE7039801686FF010009F
:1047E000086103990820087703980068C06910F4ED
:1047F000407F04D0FFE70398FFF754FF06E00398DB
:1048000000F03AF9039800F06BFAFFE703990020F3
:104810000877FFE7FFE79DF80400C00778B1FFE7DE
:104820009DF80800C00748B1FFE7039801686FF0E2
:1048300001000861039800F0E5FCFFE7FFE79DF841
:1048400004000006002810D5FFE79DF808000006C8
:10485000002809D5FFE7039801686FF08000086120
:104860000398FFF725FCFFE7FFE79DF80500C00769
:1048700080B1FFE79DF808000006002809D5FFE792
:10488000039801686FF4807008610398FFF70CFCCF
:10489000FFE7FFE79DF804004006002810D5FFE77A
:1048A0009DF808004006002809D5FFE70398016835
:1048B0006FF040000861039800F006FDFFE7FFE796
:1048C0009DF804008006002810D5FFE79DF8080039
:1048D0008006002809D5FFE7039801686FF02000E3
:1048E00008610398FFF7E8FBFFE7FFE79DF8060084
:1048F000C006002810D5FFE79DF80A00C006002872
:1049000009D5FFE7039801686FF4801008610398E8
:10491000FFF7DAFBFFE7FFE79DF8060080060028B7
:1049200010D5FFE79DF80A008006002809D5FFE7AB
:10493000039801686FF4001008610398FFF7C0FB4B
:10494000FFE7FFE79DF806004006002810D5FFE7C7
:104950009DF80A004006002809D5FFE70398016882
:104960006FF4800008610398FFF7B2FBFFE7FFE7F1
:104970009DF806000006002810D5FFE79DF80A0004
:104980000006002809D5FFE7039801686FF40000CE
:1049900008610398FFF71CFCFFE7FFE704B080BD48
:1049A00080B58CB00B9000200A9009900890079079
:1049B00006900B980068B0F1804F31D1FFE7FFE718
:1049C00040F68C40C4F20240016841F001010160F0
:1049D000006800F0010005900598FFE701200690AF
:1049E00002210091079100210191089109910A90FB
:1049F0000020C4F20220029006A90391FBF7BEFF3B
:104A0000009B019A029803994FF0800CCDF818C0D2
:104A10000793089209920E220A92FBF7AFFF28E053
:104A20000B98006840F20041C4F2000188421FD197
:104A3000FFE7FFE740F68C40C4F20240016841F016
:104A400002010160006800F0020004900498FFE792
:104A500003200690022007900021089109910A90F6
:104A600040F20040C4F2022006A9FBF787FFFFE7EF
:104A7000FFE70CB080BD000081B0009001B070472E
:104A800080B586B004900391029200208DF8070053
:104A9000FFE7049890F83C00012804D1FFE70220CA
:104AA0008DF81700C0E00499012081F83C00FFE771
:104AB000FFE702980090142800F2A7800099DFE831
:104AC00001F00BA4A4A424A4A4A43EA4A4A457A4C9
:104AD000A4A471A4A4A48A0004980068039901F016
:104AE00047FF04980168886940F0080088610498CD
:104AF0000168886920F004008861039802690498BD
:104B0000016888691043886183E00498006803990C
:104B100001F098FF04980168886940F4006088619A
:104B200004980168886920F48060886103980269AC
:104B300004980168886940EA0220886169E0049865
:104B40000068039901F0EEFF04980168C86940F01D
:104B50000800C86104980168C86920F00400C861B1
:104B60000398026904980168C8691043C86150E05D
:104B700004980068039902F043F804980168C86932
:104B800040F40060C86104980168C86920F480603E
:104B9000C8610398026904980168C86940EA022064
:104BA000C86136E004980068039902F099F8049807
:104BB0000168086D40F00800086504980168086DF8
:104BC00020F0040008650398026904980168086DE4
:104BD000104308651DE004980068039902F0CAF8C4
:104BE00004980168086D40F4006008650498016845
:104BF000086D20F4806008650398026904980168D4
:104C0000086D40EA0220086503E001208DF80700E6
:104C1000FFE7FFE70499002081F83C00FFE79DF8DB
:104C200007008DF81700FFE79DF8170006B080BD5C
:104C300080B582B00090009820B9FFE701208DF880
:104C4000070045E0009890F83D0040B9FFE7009963
:104C5000002081F83C00009800F03EF8FFE7009942
:104C6000022081F83D00009951F8040B01F0CAFDC3
:104C70000099012081F84800FFE70099012081F8A0
:104C80003E00009981F83F00009981F840000099AA
:104C900081F84100009981F84200009981F84300B1
:104CA000FFE7FFE70099012081F84400009981F8AF
:104CB0004500009981F84600009981F84700FFE718
:104CC0000099012081F83D0000208DF80700FFE7E2
:104CD0009DF8070002B080BD81B0009001B0704720
:104CE00080B586B00590059840F21021C2F200010F
:104CF00088424FD1FFE70598007F082822D1FFE7BF
:104D000040F25C10C2F200000168013101600068ED
:104D1000142816D1FFE740F25C11C2F20001002016
:104D2000086040F21020C2F2000004900C2100F054
:104D3000A3F90498FFF77CFFFBF72CFDFBF760FD60
:104D4000FFE7FFE70598007F042822D1FFE740F244
:104D50005810C2F200000168013101600068142897
:104D600016D1FFE740F25811C2F20001002008609E
:104D700040F21020C2F200000390082100F07CF9FC
:104D80000398FFF755FFFBF705FDFBF739FDFFE73C
:104D9000FFE756E0059840F2C411C2F200018842D4
:104DA0004ED1FFE70598007F012821D1FFE740F2AF
:104DB0006010C2F20000016801310160006814282F
:104DC00015D1FFE740F26010C2F20000002101603F
:104DD00040F2C410C2F20000029000F04DF90298B7
:104DE000FFF726FFFBF7D6FCFBF70AFDFFE7FFE71F
:104DF0000598007F042822D1FFE740F26410C2F238
:104E000000000168013101600068142816D1FFE735
:104E100040F26411C2F200010020086040F2C410A8
:104E2000C2F200000190082100F026F90198FFF776
:104E3000FFFEFBF7AFFCFBF7E3FCFFE7FFE7FFE755
:104E4000FFE706B080BD000080B590B00E900D91D8
:104E500000208DF833000D9828B9FFE70E9890F8E0
:104E60003E000A9034E00D98042805D1FFE70E9823
:104E700090F83F00099028E00D98082805D1FFE739
:104E80000E9890F8400008901CE00D980C2805D171
:104E9000FFE70E9890F84100079010E00D98102859
:104EA00005D1FFE70E9890F84200069004E00E98B6
:104EB00090F843000690FFE706980790FFE70798F1
:104EC0000890FFE708980990FFE709980A90FFE724
:104ED0000A98012804D0FFE701208DF83F00C7E0C1
:104EE0000D9828B9FFE70E99022081F83E0038E0BE
:104EF0000D98042806D1FFE70E99022081F83F00A3
:104F000005902CE00D98082806D1FFE70E990220A5
:104F100081F8400004901FE00D980C2806D1FFE7AF
:104F20000E99022081F84100039012E00D9810289C
:104F300006D1FFE70E99022081F84200029005E0B9
:104F40000E99022081F843000290FFE70298039037
:104F5000FFE703980490FFE704980590FFE70598A2
:104F6000FFE70D9801900C2825D80199DFE801F0A2
:104F7000072323230E232323152323231C000E980A
:104F80000168C86840F00200C86018E00E98016827
:104F9000C86840F00400C86011E00E980168C86855
:104FA00040F00800C8600AE00E980168C86840F048
:104FB0001000C86003E001208DF83300FFE79DF882
:104FC000330000284FD1FFE70E9800680D990122A9
:104FD00001F080FC0E98006842F60041C4F2010125
:104FE000884207D1FFE70E980168486C40F4004002
:104FF0004864FFE70E98006842F60041C4F20101E0
:1050000088420FD0FFE70E980068B0F1804F09D0BA
:10501000FFE70E98006840F20041C4F200018842A8
:1050200019D1FFE70E98006880680721C0F20101DE
:1050300008400B900B9806280CD0FFE70B98B0F5B2
:10504000803F07D0FFE70E980168086840F0010034
:105050000860FFE706E00E980168086840F001006C
:105060000860FFE7FFE79DF833008DF83F00FFE79A
:105070009DF83F0010B080BD80B588B007900691C4
:1050800000208DF81700069804900C2825D8049964
:10509000DFE801F0072323230E23232315232323F3
:1050A0001C0007980168C86820F00200C86018E07A
:1050B00007980168C86820F00400C86011E00798EC
:1050C0000168C86820F00800C8600AE00798016815
:1050D000C86820F01000C86003E001208DF81700B8
:1050E000FFE79DF81700002840F08780FFE707984A
:1050F00000680699002201F0EDFB0798006842F66F
:105100000041C4F2010188421BD1FFE7FFE7079885
:105110000068006A41F21111084210D1FFE70798B8
:105120000068006A44F24441084207D1FFE707984B
:105130000168486C20F400404864FFE7FFE7FFE7A0
:10514000FFE7FFE707980068006A41F21111084283
:1051500010D1FFE707980068006A44F24441084212
:1051600007D1FFE707980168086820F00100086090
:10517000FFE7FFE7FFE7069828B9FFE70799012057
:1051800081F83E0038E00698042806D1FFE7079929
:10519000012081F83F0003902CE00698082806D1F2
:1051A000FFE70799012081F8400002901FE0069870
:1051B0000C2806D1FFE70799012081F841000190F2
:1051C00012E00698102806D1FFE70799012081F820
:1051D0004200009005E00799012081F8430000900B
:1051E000FFE700980190FFE701980290FFE702981F
:1051F0000390FFE70398FFE7FFE79DF8170008B06B
:1052000080BD000080B584B00390039840F25C211B
:10521000C2F20001884226D1FFE740F25C20C2F2D0
:105220000000FFF711F940F24030C2F200000078B0
:1052300001460291012804D0FFE70298022808D015
:105240000FE040F21020C2F200000C21FFF7FCFD3D
:1052500008E040F2C410C2F200000821FFF7F4FD9C
:1052600000E0FFE7FFE7039840F27811C2F2000187
:10527000884226D1FFE740F27810C2F20000FFF723
:10528000E3F840F24030C2F200000078014601919C
:10529000012804D0FFE70198022808D00FE040F26F
:1052A0001020C2F200000821FFF7CEFD08E040F216
:1052B000C410C2F200000021FFF7C6FD00E0FFE7C6
:1052C000FFE704B080BD000081B0009001B07047DE
:1052D00083B00190FFE7019890F88400012804D181
:1052E000FFE702208DF80B002CE00199012081F8E6
:1052F0008400FFE7FFE701992420C1F888000198A6
:1053000000680068009001980168086820F00100BA
:105310000860009820F00050009001990020486635
:10532000009801990968086001992020C1F8880057
:10533000FFE70199002081F88400FFE700208DF845
:105340000B00FFE79DF80B0003B0704782B001909F
:10535000ADF8021002B0704781B0009001B0704704
:1053600080B584B002900191FFE7029890F8840024
:10537000012804D1FFE702208DF80F0032E00299E6
:10538000012081F88400FFE7FFE702992420C1F89B
:105390008800029800680068009002980168086818
:1053A00020F00100086002980068806820F06060CA
:1053B00001990843029909688860029801F076FD16
:1053C000009802990968086002992020C1F88800B5
:1053D000FFE70299002081F88400FFE700208DF8A4
:1053E0000F00FFE79DF80F0004B080BD80B584B0CA
:1053F00002900191FFE7029890F88400012804D1FF
:10540000FFE702208DF80F0032E00299012081F8B9
:105410008400FFE7FFE702992420C1F88800029882
:1054200000680068009002980168086820F0010098
:10543000086002980068806820F060400199084385
:10544000029909688860029801F030FD009802997D
:105450000968086002992020C1F88800FFE70299D6
:10546000002081F88400FFE700208DF80F00FFE79F
:105470009DF80F0004B080BD81B0009001B070476E
:1054800081B0009001B0704781B0009001B07047CA
:1054900080B58EB00D900D980068C0690C900D9885
:1054A000006800680B900D98006880680A900C985E
:1054B00040F60F01084009900998E0B9FFE79DF810
:1054C00030008006002815D5FFE79DF82C008006E7
:1054D000002806D4FFE79DF82B00C006002809D558
:1054E000FFE70D98406F20B1FFE70D98416F8847A7
:1054F000FFE751E2FFE70998002800F0F980FFE795
:105500000A980121C1F20001084209D1FFE70B9876
:1055100040F22011C0F20041084200F0E980FFE7AC
:105520009DF83000C00788B1FFE79DF82D00C00747
:1055300060B1FFE70D980168012008620D99D1F86C
:10554000900040F00100C1F89000FFE79DF83000A6
:105550008007002811D5FFE79DF82800C00760B13B
:10556000FFE70D980168022008620D99D1F89000BC
:1055700040F00400C1F89000FFE79DF830004007BC
:10558000002811D5FFE79DF82800C00760B1FFE7AC
:105590000D980168042008620D99D1F8900040F040
:1055A0000200C1F89000FFE79DF8300000070028D6
:1055B00019D5FFE79DF82C008006002807D4FFE7E7
:1055C0000A980121C1F2000108420CD0FFE70D98B2
:1055D0000168082008620D99D1F8900040F0080099
:1055E000C1F89000FFE79DF831000007002813D5AF
:1055F000FFE79DF82F00400700280DD5FFE70D9825
:1056000001684FF4006008620D99D1F8900040F0F5
:105610002000C1F89000FFE70D98D0F89000002816
:1056200065D0FFE79DF830008006002815D5FFE71C
:105630009DF82C008006002806D4FFE79DF82B007B
:10564000C006002809D5FFE70D98406F20B1FFE79D
:105650000D98416F8847FFE7FFE70D98D0F890005D
:1056600008900D980068806800F04000402806D03F
:10567000FFE79DF8200010F0280F2FD0FFE70D98CE
:1056800001F0B4FD0D98006880684006002820D520
:10569000FFE70D98D0F88000B0B1FFE70D98D0F883
:1056A000801047F2C910C0F60000C8660D98D0F807
:1056B0008000FBF745F830B1FFE70D98D0F8800087
:1056C000C16E8847FFE703E00D98FFF7DDFEFFE7B7
:1056D00003E00D98FFF7D8FEFFE707E00D98FFF70E
:1056E000D3FE0D990020C1F89000FFE7FFE753E1DA
:1056F0000D98C06E012840F0F080FFE79DF8300063
:10570000C006002840F1E980FFE79DF82C00C006A4
:10571000002840F1E280FFE70D9801681020086240
:105720000D98006880684006002874D5FFE70D9842
:10573000D0F880000068806CADF81E00BDF81E0037
:10574000002867D0FFE7BDF81E000D99B1F85C1086
:1057500088425FDAFFE7BDF81E000D99A1F85E00F0
:105760000D98D0F88000006D812846D0FFE7FFE754
:10577000FFE70D98006850E8000F20F48070069055
:10578000FFE706990D98026842E800100028F0D162
:10579000FFE7FFE7FFE7FFE70D98006850E8020F1B
:1057A00020F001000590FFE705990D98026842E896
:1057B00002100028F0D1FFE7FFE70D992020C1F883
:1057C0008C000D990020C866FFE7FFE70D98006880
:1057D00050E8000F20F010000490FFE704990D98A6
:1057E000026842E800100028F0D1FFE7FFE70D98BB
:1057F000D0F88000FAF718FFFFE70D99022008673C
:105800000D98B0F85C10B0F85E20891A89B2FFF7E5
:105810009DFDFFE7C0E00D99B1F85C00B1F85E10A6
:10582000401AADF80E000D98B0F85E00002853D075
:10583000FFE7BDF80E0000284ED0FFE7FFE7FFE7C7
:105840000D98006850E8000F20F490700290FFE778
:1058500002990D98026842E800100028F0D1FFE795
:10586000FFE7FFE7FFE70D98006850E8020F4FF6EB
:10587000FE71CEF6FF7108400190FFE701990D9887
:10588000026842E802100028EDD1FFE7FFE70D991A
:105890002020C1F88C000D990020C8660D9948673A
:1058A000FFE7FFE70D98006850E8000F20F01000B8
:1058B0000090FFE700990D98026842E80010002868
:1058C000F0D1FFE7FFE70D99022008670D98BDF8BA
:1058D0000E10FFF73BFDFFE75EE09DF83200C006CB
:1058E00000280FD5FFE79DF82A004006002809D5BB
:1058F000FFE70D9801684FF4801008620D98FFF7DC
:10590000BFFD49E09DF830000006002815D5FFE7EF
:105910009DF82C000006002806D4FFE79DF82A0019
:105920000006002809D5FFE70D98806F20B1FFE73A
:105930000D98816F8847FFE72EE09DF83000400604
:1059400000280AD5FFE79DF82C004006002804D562
:10595000FFE70D9801F09AFC1EE09DF8320000066A
:1059600000280AD5FFE79DF82F004006002804D53F
:10597000FFE70D98FFF780FD0EE09DF83300C007AC
:1059800050B1FFE79DF82F000006002804D5FFE77F
:105990000D98FFF7E1FCFFE70EB080BD80B582B047
:1059A0000090009820B9FFE701208DF8070046E03D
:1059B0000098806908B1FFE700E0FFE70098D0F8A1
:1059C000880040B9FFE70099002081F88400009822
:1059D00000F03AF8FFE700992420C1F88800009809
:1059E0000168086820F0010008600098806A20B112
:1059F000FFE7009801F0A0FAFFE7009802F0FCF83A
:105A0000012804D1FFE701208DF8070017E0009876
:105A10000168486820F490404860009801688868F0
:105A200020F02A00886000980168086840F00100B2
:105A30000860009801F024FB8DF80700FFE79DF84F
:105A4000070002B080BD000080B5ACB02B900020F4
:105A50002A90299028902790269004A88821FAF768
:105A600051FC2B98006843F60001C4F20101884202
:105A700047D1FFE70020059001210491119004A86F
:105A8000FCF7B8FC18B1FFE7FAF7B2FDFFE7FFE754
:105A900040F6A440C4F20240016841F48041016034
:105AA000006800F4804003900398FFE7FFE740F6AA
:105AB0008C40C4F20240016841F0020101600068BC
:105AC00000F0020002900298FFE74FF44040269059
:105AD00002202790002000902890299004202A90EE
